{"abi":[{"type":"constructor","inputs":[],"stateMutability":"nonpayable"},{"type":"function","name":"MAX_ENTRIES","inputs":[],"outputs":[{"name":"","type":"uint256","internalType":"uint256"}],"stateMutability":"view"},{"type":"function","name":"WINNER_COUNT","inputs":[],"outputs":[{"name":"","type":"uint256","internalType":"uint256"}],"stateMutability":"view"},{"type":"function","name":"enter","inputs":[],"outputs":[],"stateMutability":"payable"},{"type":"function","name":"entryCount","inputs":[{"name":"","type":"address","internalType":"address"}],"outputs":[{"name":"","type":"uint256","internalType":"uint256"}],"stateMutability":"view"},{"type":"function","name":"getPlayersLength","inputs":[],"outputs":[{"name":"","type":"uint256","internalType":"uint256"}],"stateMutability":"view"},{"type":"function","name":"getWinners","inputs":[],"outputs":[{"name":"","type":"address[]","internalType":"address[]"}],"stateMutability":"view"},{"type":"function","name":"lastWinners","inputs":[{"name":"","type":"uint256","internalType":"uint256"}],"outputs":[{"name":"","type":"address","internalType":"address"}],"stateMutability":"view"},{"type":"function","name":"owner","inputs":[],"outputs":[{"name":"","type":"address","internalType":"address"}],"stateMutability":"view"},{"type":"function","name":"pickWinner","inputs":[],"outputs":[],"stateMutability":"nonpayable"},{"type":"function","name":"players","inputs":[{"name":"","type":"uint256","internalType":"uint256"}],"outputs":[{"name":"","type":"address","internalType":"address"}],"stateMutability":"view"},{"type":"function","name":"transferOwnership","inputs":[{"name":"_newOwner","type":"address","internalType":"address"}],"outputs":[],"stateMutability":"nonpayable"},{"type":"function","name":"withdraw","inputs":[],"outputs":[],"stateMutability":"payable"}],"bytecode":{"object":"0x6080604052348015600f57600080fd5b50600080546001600160a01b03191633179055610b1e806100316000396000f3fe6080604052600436106100a75760003560e01c8063adda2c2e11610064578063adda2c2e14610158578063cd61386d14610178578063df15c37e1461018d578063e97dcb62146101af578063f2fde38b146101b7578063f71d96cb146101d757600080fd5b80633ccfd60b146100ac57806341dd1ef8146100b65780635d495aea146100f65780637d4cb9641461010b5780638da5cb5b146101205780639934bba51461010b575b600080fd5b6100b46101f7565b005b3480156100c257600080fd5b506100e36100d136600461088d565b60036020526000908152604090205481565b6040519081526020015b60405180910390f35b34801561010257600080fd5b506100b4610259565b34801561011757600080fd5b506100e3600381565b34801561012c57600080fd5b50600054610140906001600160a01b031681565b6040516001600160a01b0390911681526020016100ed565b34801561016457600080fd5b506101406101733660046108bd565b6104ab565b34801561018457600080fd5b506001546100e3565b34801561019957600080fd5b506101a26104d5565b6040516100ed91906108d6565b6100b4610537565b3480156101c357600080fd5b506100b46101d236600461088d565b6106ce565b3480156101e357600080fd5b506101406101f23660046108bd565b61071a565b6000546001600160a01b0316331461022a5760405162461bcd60e51b815260040161022190610923565b60405180910390fd5b60405133904780156108fc02916000818181858888f19350505050158015610256573d6000803e3d6000fd5b50565b6000546001600160a01b031633146102835760405162461bcd60e51b815260040161022190610923565b600154600311156102e15760405162461bcd60e51b815260206004820152602260248201527f4e6f7420656e6f75676820706c617965727320746f207069636b2077696e6e65604482015261727360f01b6064820152608401610221565b6103146040518060400160405280600a8152602001691c985b991bdb4e88095960b21b81525061030f61072a565b610764565b60015460009061032261072a565b61032c9190610970565b905061035960405180604001604052806009815260200168696e6465783a20257360b81b81525082610764565b60408051600380825260808201909252600091602082016060803683370190505090506000610389600347610984565b905060005b6003811015610473576001546000906103a78387610998565b6103b19190610970565b9050600181815481106103c6576103c66109bf565b9060005260206000200160009054906101000a90046001600160a01b03168483815181106103f6576103f66109bf565b60200260200101906001600160a01b031690816001600160a01b03168152505060018181548110610429576104296109bf565b60009182526020822001546040516001600160a01b039091169185156108fc02918691818181858888f19350505050158015610469573d6000803e3d6000fd5b505060010161038e565b508151610487906002906020850190610813565b5060408051600081526020810191829052516104a591600191610813565b50505050565b600281815481106104bb57600080fd5b6000918252602090912001546001600160a01b0316905081565b6060600280548060200260200160405190810160405280929190818152602001828054801561052d57602002820191906000526020600020905b81546001600160a01b0316815260019091019060200180831161050f575b5050505050905090565b3466038d7ea4c680001461059c5760405162461bcd60e51b815260206004820152602660248201527f4d7573742073656e642065786163746c7920302e30303120657468657220746f6044820152651032b73a32b960d11b6064820152608401610221565b33600090815260036020819052604090912054106105fc5760405162461bcd60e51b815260206004820152601a60248201527f596f752063616e206f6e6c7920656e74657220332074696d65730000000000006044820152606401610221565b33600090815260036020526040812080546001929061061c908490610998565b90915550506001805480820182556000919091527fb10e2d527612073b26eecdfd717e6a320cf44b4afac2b0732d9fcbe2b7fa0cf60180546001600160a01b03191633908117909155604080518082019091526012815271506c6179657220656e74657265643a20257360701b6020820152610697916107ad565b604080518082019091526011815270546f74616c20706c61796572733a20257360781b60208201526001546106cc9190610764565b565b6000546001600160a01b031633146106f85760405162461bcd60e51b815260040161022190610923565b600080546001600160a01b0319166001600160a01b0392909216919091179055565b600181815481106104bb57600080fd5b60004244436001336040516020016107469594939291906109d5565b6040516020818303038152906040528051906020012060001c905090565b6107a9828260405160240161077a929190610a9c565b60408051601f198184030181529190526020810180516001600160e01b03166309710a9d60e41b1790526107ee565b5050565b6107a982826040516024016107c3929190610abe565b60408051601f198184030181529190526020810180516001600160e01b031663319af33360e01b1790525b6102568180516a636f6e736f6c652e6c6f67602083016000808483855afa5050505050565b828054828255906000526020600020908101928215610868579160200282015b8281111561086857825182546001600160a01b0319166001600160a01b03909116178255602090920191600190910190610833565b50610874929150610878565b5090565b5b808211156108745760008155600101610879565b60006020828403121561089f57600080fd5b81356001600160a01b03811681146108b657600080fd5b9392505050565b6000602082840312156108cf57600080fd5b5035919050565b6020808252825182820181905260009190848201906040850190845b818110156109175783516001600160a01b0316835292840192918401916001016108f2565b50909695505050505050565b60208082526017908201527f43616c6c6572206973206e6f7420746865206f776e6572000000000000000000604082015260600190565b634e487b7160e01b600052601260045260246000fd5b60008261097f5761097f61095a565b500690565b6000826109935761099361095a565b500490565b808201808211156109b957634e487b7160e01b600052601160045260246000fd5b92915050565b634e487b7160e01b600052603260045260246000fd5b600060a08201878352602087602085015286604085015260a0606085015281865480845260c086019150876000526020600020935060005b81811015610a325784546001600160a01b031683526001948501949284019201610a0d565b50506001600160a01b03959095166080949094019390935250919695505050505050565b6000815180845260005b81811015610a7c57602081850181015186830182015201610a60565b506000602082860101526020601f19601f83011685010191505092915050565b604081526000610aaf6040830185610a56565b90508260208301529392505050565b604081526000610ad16040830185610a56565b905060018060a01b0383166020830152939250505056fea2646970667358221220eb98c4c18c760020a1551c3c2547343639c89049de8e4848f1e7fdc57a71770b64736f6c63430008190033","linkReferences":{}},"methodIdentifiers":{"MAX_ENTRIES()":"7d4cb964","WINNER_COUNT()":"9934bba5","enter()":"e97dcb62","entryCount(address)":"41dd1ef8","getPlayersLength()":"cd61386d","getWinners()":"df15c37e","lastWinners(uint256)":"adda2c2e","owner()":"8da5cb5b","pickWinner()":"5d495aea","players(uint256)":"f71d96cb","transferOwnership(address)":"f2fde38b","withdraw()":"3ccfd60b"},"id":25}